{
  "contractName": "FlashSwapArb",
  "abi": [
    {
      "inputs": [],
      "stateMutability": "payable",
      "type": "constructor"
    },
    {
      "stateMutability": "payable",
      "type": "receive"
    },
    {
      "inputs": [],
      "name": "owner",
      "outputs": [
        {
          "internalType": "address",
          "name": "",
          "type": "address"
        }
      ],
      "stateMutability": "view",
      "type": "function"
    },
    {
      "inputs": [
        {
          "internalType": "uint256",
          "name": "amount",
          "type": "uint256"
        }
      ],
      "name": "withdraw",
      "outputs": [],
      "stateMutability": "payable",
      "type": "function"
    },
    {
      "inputs": [
        {
          "internalType": "address",
          "name": "token",
          "type": "address"
        },
        {
          "internalType": "uint256",
          "name": "amount",
          "type": "uint256"
        }
      ],
      "name": "withdrawOf",
      "outputs": [],
      "stateMutability": "payable",
      "type": "function"
    },
    {
      "inputs": [],
      "name": "balance",
      "outputs": [
        {
          "internalType": "uint256",
          "name": "",
          "type": "uint256"
        }
      ],
      "stateMutability": "view",
      "type": "function"
    },
    {
      "inputs": [
        {
          "internalType": "address",
          "name": "token",
          "type": "address"
        }
      ],
      "name": "balanceOf",
      "outputs": [
        {
          "internalType": "uint256",
          "name": "",
          "type": "uint256"
        }
      ],
      "stateMutability": "view",
      "type": "function"
    },
    {
      "inputs": [],
      "name": "destruct",
      "outputs": [],
      "stateMutability": "nonpayable",
      "type": "function"
    },
    {
      "inputs": [
        {
          "internalType": "address",
          "name": "router",
          "type": "address"
        },
        {
          "internalType": "address[]",
          "name": "path",
          "type": "address[]"
        },
        {
          "internalType": "uint256",
          "name": "amount",
          "type": "uint256"
        }
      ],
      "name": "getAmountOutMin",
      "outputs": [
        {
          "internalType": "uint256",
          "name": "",
          "type": "uint256"
        }
      ],
      "stateMutability": "view",
      "type": "function"
    },
    {
      "inputs": [
        {
          "internalType": "address",
          "name": "router",
          "type": "address"
        },
        {
          "internalType": "address",
          "name": "tokenIn",
          "type": "address"
        },
        {
          "internalType": "address",
          "name": "tokenOut",
          "type": "address"
        },
        {
          "internalType": "uint256",
          "name": "amount",
          "type": "uint256"
        }
      ],
      "name": "getAmountOutMin2",
      "outputs": [
        {
          "internalType": "uint256",
          "name": "",
          "type": "uint256"
        }
      ],
      "stateMutability": "view",
      "type": "function"
    },
    {
      "inputs": [
        {
          "internalType": "address",
          "name": "router",
          "type": "address"
        },
        {
          "internalType": "address[]",
          "name": "path",
          "type": "address[]"
        },
        {
          "internalType": "uint256",
          "name": "amountIn",
          "type": "uint256"
        },
        {
          "internalType": "uint256",
          "name": "amountOut",
          "type": "uint256"
        }
      ],
      "name": "swap",
      "outputs": [
        {
          "internalType": "uint256",
          "name": "",
          "type": "uint256"
        }
      ],
      "stateMutability": "nonpayable",
      "type": "function"
    },
    {
      "inputs": [
        {
          "internalType": "address",
          "name": "router",
          "type": "address"
        },
        {
          "internalType": "address",
          "name": "tokenIn",
          "type": "address"
        },
        {
          "internalType": "address",
          "name": "tokenOut",
          "type": "address"
        },
        {
          "internalType": "uint256",
          "name": "amountIn",
          "type": "uint256"
        },
        {
          "internalType": "uint256",
          "name": "amountOut",
          "type": "uint256"
        }
      ],
      "name": "swap2",
      "outputs": [
        {
          "internalType": "uint256",
          "name": "",
          "type": "uint256"
        }
      ],
      "stateMutability": "nonpayable",
      "type": "function"
    },
    {
      "inputs": [
        {
          "internalType": "uint256",
          "name": "amountIn",
          "type": "uint256"
        },
        {
          "internalType": "address",
          "name": "router",
          "type": "address"
        },
        {
          "components": [
            {
              "internalType": "address[]",
              "name": "path",
              "type": "address[]"
            },
            {
              "internalType": "uint256",
              "name": "amountOut",
              "type": "uint256"
            }
          ],
          "internalType": "struct FlashSwapArb.Swap1[]",
          "name": "data",
          "type": "tuple[]"
        }
      ],
      "name": "searcher1",
      "outputs": [
        {
          "components": [
            {
              "internalType": "address[]",
              "name": "path",
              "type": "address[]"
            },
            {
              "internalType": "uint256",
              "name": "amountOut",
              "type": "uint256"
            }
          ],
          "internalType": "struct FlashSwapArb.Swap1[]",
          "name": "",
          "type": "tuple[]"
        }
      ],
      "stateMutability": "view",
      "type": "function"
    },
    {
      "inputs": [
        {
          "internalType": "uint256",
          "name": "maxBlockNumber",
          "type": "uint256"
        },
        {
          "internalType": "address",
          "name": "router",
          "type": "address"
        },
        {
          "internalType": "uint256",
          "name": "amountIn",
          "type": "uint256"
        },
        {
          "components": [
            {
              "internalType": "address[]",
              "name": "path",
              "type": "address[]"
            },
            {
              "internalType": "uint256",
              "name": "amountOut",
              "type": "uint256"
            }
          ],
          "internalType": "struct FlashSwapArb.Swap1",
          "name": "data",
          "type": "tuple"
        }
      ],
      "name": "taker1",
      "outputs": [],
      "stateMutability": "payable",
      "type": "function"
    },
    {
      "inputs": [
        {
          "internalType": "uint256",
          "name": "amountIn",
          "type": "uint256"
        },
        {
          "components": [
            {
              "internalType": "address",
              "name": "router1",
              "type": "address"
            },
            {
              "internalType": "address",
              "name": "router2",
              "type": "address"
            },
            {
              "internalType": "address",
              "name": "token1",
              "type": "address"
            },
            {
              "internalType": "address",
              "name": "token2",
              "type": "address"
            },
            {
              "internalType": "uint256",
              "name": "amountOut1",
              "type": "uint256"
            },
            {
              "internalType": "uint256",
              "name": "amountOut2",
              "type": "uint256"
            }
          ],
          "internalType": "struct FlashSwapArb.Swap2[]",
          "name": "data",
          "type": "tuple[]"
        }
      ],
      "name": "searcher2",
      "outputs": [
        {
          "components": [
            {
              "internalType": "address",
              "name": "router1",
              "type": "address"
            },
            {
              "internalType": "address",
              "name": "router2",
              "type": "address"
            },
            {
              "internalType": "address",
              "name": "token1",
              "type": "address"
            },
            {
              "internalType": "address",
              "name": "token2",
              "type": "address"
            },
            {
              "internalType": "uint256",
              "name": "amountOut1",
              "type": "uint256"
            },
            {
              "internalType": "uint256",
              "name": "amountOut2",
              "type": "uint256"
            }
          ],
          "internalType": "struct FlashSwapArb.Swap2[]",
          "name": "",
          "type": "tuple[]"
        }
      ],
      "stateMutability": "view",
      "type": "function"
    },
    {
      "inputs": [
        {
          "internalType": "uint256",
          "name": "maxBlockNumber",
          "type": "uint256"
        },
        {
          "internalType": "uint256",
          "name": "amountIn",
          "type": "uint256"
        },
        {
          "components": [
            {
              "internalType": "address",
              "name": "router1",
              "type": "address"
            },
            {
              "internalType": "address",
              "name": "router2",
              "type": "address"
            },
            {
              "internalType": "address",
              "name": "token1",
              "type": "address"
            },
            {
              "internalType": "address",
              "name": "token2",
              "type": "address"
            },
            {
              "internalType": "uint256",
              "name": "amountOut1",
              "type": "uint256"
            },
            {
              "internalType": "uint256",
              "name": "amountOut2",
              "type": "uint256"
            }
          ],
          "internalType": "struct FlashSwapArb.Swap2",
          "name": "data",
          "type": "tuple"
        }
      ],
      "name": "taker2",
      "outputs": [],
      "stateMutability": "payable",
      "type": "function"
    },
    {
      "inputs": [
        {
          "internalType": "uint256",
          "name": "amountIn",
          "type": "uint256"
        },
        {
          "components": [
            {
              "internalType": "address",
              "name": "router1",
              "type": "address"
            },
            {
              "internalType": "address",
              "name": "router2",
              "type": "address"
            },
            {
              "internalType": "address",
              "name": "router3",
              "type": "address"
            },
            {
              "internalType": "address",
              "name": "token1",
              "type": "address"
            },
            {
              "internalType": "address",
              "name": "token2",
              "type": "address"
            },
            {
              "internalType": "address",
              "name": "token3",
              "type": "address"
            },
            {
              "internalType": "uint256",
              "name": "amountOut1",
              "type": "uint256"
            },
            {
              "internalType": "uint256",
              "name": "amountOut2",
              "type": "uint256"
            },
            {
              "internalType": "uint256",
              "name": "amountOut3",
              "type": "uint256"
            }
          ],
          "internalType": "struct FlashSwapArb.Swap3[]",
          "name": "data",
          "type": "tuple[]"
        }
      ],
      "name": "searcher3",
      "outputs": [
        {
          "components": [
            {
              "internalType": "address",
              "name": "router1",
              "type": "address"
            },
            {
              "internalType": "address",
              "name": "router2",
              "type": "address"
            },
            {
              "internalType": "address",
              "name": "router3",
              "type": "address"
            },
            {
              "internalType": "address",
              "name": "token1",
              "type": "address"
            },
            {
              "internalType": "address",
              "name": "token2",
              "type": "address"
            },
            {
              "internalType": "address",
              "name": "token3",
              "type": "address"
            },
            {
              "internalType": "uint256",
              "name": "amountOut1",
              "type": "uint256"
            },
            {
              "internalType": "uint256",
              "name": "amountOut2",
              "type": "uint256"
            },
            {
              "internalType": "uint256",
              "name": "amountOut3",
              "type": "uint256"
            }
          ],
          "internalType": "struct FlashSwapArb.Swap3[]",
          "name": "",
          "type": "tuple[]"
        }
      ],
      "stateMutability": "view",
      "type": "function"
    },
    {
      "inputs": [
        {
          "internalType": "uint256",
          "name": "maxBlockNumber",
          "type": "uint256"
        },
        {
          "internalType": "uint256",
          "name": "amountIn",
          "type": "uint256"
        },
        {
          "components": [
            {
              "internalType": "address",
              "name": "router1",
              "type": "address"
            },
            {
              "internalType": "address",
              "name": "router2",
              "type": "address"
            },
            {
              "internalType": "address",
              "name": "router3",
              "type": "address"
            },
            {
              "internalType": "address",
              "name": "token1",
              "type": "address"
            },
            {
              "internalType": "address",
              "name": "token2",
              "type": "address"
            },
            {
              "internalType": "address",
              "name": "token3",
              "type": "address"
            },
            {
              "internalType": "uint256",
              "name": "amountOut1",
              "type": "uint256"
            },
            {
              "internalType": "uint256",
              "name": "amountOut2",
              "type": "uint256"
            },
            {
              "internalType": "uint256",
              "name": "amountOut3",
              "type": "uint256"
            }
          ],
          "internalType": "struct FlashSwapArb.Swap3",
          "name": "data",
          "type": "tuple"
        }
      ],
      "name": "taker3",
      "outputs": [],
      "stateMutability": "payable",
      "type": "function"
    }
  ],
  "bytecode": "0x60a06040523373ffffffffffffffffffffffffffffffffffffffff1660808173ffffffffffffffffffffffffffffffffffffffff1681525050608051612e75610099600039600081816104a7015281816105240152818161069f0152818161070b015281816108fb01528181610ac401528181610b4d01528181610bd60152818161106c015281816111bd01526113720152612e756000f3fe6080604052600436106100f75760003560e01c80638da5cb5b1161008a578063b69ef8a811610059578063b69ef8a814610302578063bcc260881461032d578063d718bf6d1461036a578063eeb0b722146103a7576100fe565b80638da5cb5b1461024157806390ae5c721461026c57806392c3ddd5146102a95780639bdd6b86146102e6576100fe565b8063322f6377116100c6578063322f63771461018f57806370a08231146101cc5780637821e3441461020957806382d86fdd14610225576100fe565b80632261d9e9146101035780632b68b9c6146101405780632c0859d1146101575780632e1a7d4d14610173576100fe565b366100fe57005b600080fd5b34801561010f57600080fd5b5061012a60048036038101906101259190611a7b565b6103e4565b6040516101379190611af9565b60405180910390f35b34801561014c57600080fd5b506101556104a5565b005b610171600480360381019061016c9190611b38565b610522565b005b61018d60048036038101906101889190611b8c565b61069d565b005b34801561019b57600080fd5b506101b660048036038101906101b19190611bb9565b610773565b6040516101c39190611af9565b60405180910390f35b3480156101d857600080fd5b506101f360048036038101906101ee9190611c20565b610876565b6040516102009190611af9565b60405180910390f35b610223600480360381019061021e9190611c6d565b6108f9565b005b61023f600480360381019061023a9190611cc1565b610ac2565b005b34801561024d57600080fd5b50610256610bd2565b6040516102639190611d10565b60405180910390f35b34801561027857600080fd5b50610293600480360381019061028e9190611d86565b610bfa565b6040516102a09190611fc6565b60405180910390f35b3480156102b557600080fd5b506102d060048036038101906102cb919061203f565b610d77565b6040516102dd9190612206565b60405180910390f35b61030060048036038101906102fb9190612247565b61106a565b005b34801561030e57600080fd5b506103176111b1565b6040516103249190611af9565b60405180910390f35b34801561033957600080fd5b50610354600480360381019061034f91906122ca565b6111b9565b6040516103619190611af9565b60405180910390f35b34801561037657600080fd5b50610391600480360381019061038c919061234d565b61136e565b60405161039e9190611af9565b60405180910390f35b3480156103b357600080fd5b506103ce60048036038101906103c9919061241e565b6114cc565b6040516103db91906125a8565b60405180910390f35b600080600090508473ffffffffffffffffffffffffffffffffffffffff1663d06ca61f84866040518363ffffffff1660e01b8152600401610426929190612639565b600060405180830381865afa92505050801561046557506040513d6000823e3d601f19601f820116820180604052508101906104629190612741565b60015b61046e5761049a565b806001865161047d91906127b9565b8151811061048e5761048d6127ed565b5b60200260200101519150505b809150509392505050565b7f000000000000000000000000000000000000000000000000000000000000000073ffffffffffffffffffffffffffffffffffffffff163373ffffffffffffffffffffffffffffffffffffffff16146104fd57600080fd5b6000610507610bd2565b90508073ffffffffffffffffffffffffffffffffffffffff16ff5b7f000000000000000000000000000000000000000000000000000000000000000073ffffffffffffffffffffffffffffffffffffffff163373ffffffffffffffffffffffffffffffffffffffff161461057a57600080fd5b824311156105bd576040517f08c379a00000000000000000000000000000000000000000000000000000000081526004016105b490612879565b60405180910390fd5b60006106068260000160208101906105d59190611c20565b8360400160208101906105e89190611c20565b8460600160208101906105fb9190611c20565b86866080013561136e565b905061065382602001602081019061061e9190611c20565b8360600160208101906106319190611c20565b8460400160208101906106449190611c20565b85608001358660a0013561136e565b9050828111610697576040517f08c379a000000000000000000000000000000000000000000000000000000000815260040161068e906128e5565b60405180910390fd5b50505050565b7f000000000000000000000000000000000000000000000000000000000000000073ffffffffffffffffffffffffffffffffffffffff163373ffffffffffffffffffffffffffffffffffffffff16146106f557600080fd5b6106fd6111b1565b81111561070957600080fd5b7f000000000000000000000000000000000000000000000000000000000000000073ffffffffffffffffffffffffffffffffffffffff166108fc829081150290604051600060405180830381858888f1935050505015801561076f573d6000803e3d6000fd5b5050565b600080600267ffffffffffffffff81111561079157610790611902565b5b6040519080825280602002602001820160405280156107bf5781602001602082028036833780820191505090505b50905084816000815181106107d7576107d66127ed565b5b602002602001019073ffffffffffffffffffffffffffffffffffffffff16908173ffffffffffffffffffffffffffffffffffffffff16815250508381600181518110610826576108256127ed565b5b602002602001019073ffffffffffffffffffffffffffffffffffffffff16908173ffffffffffffffffffffffffffffffffffffffff168152505061086b8682856103e4565b915050949350505050565b60008173ffffffffffffffffffffffffffffffffffffffff166370a08231306040518263ffffffff1660e01b81526004016108b19190611d10565b602060405180830381865afa1580156108ce573d6000803e3d6000fd5b505050506040513d601f19601f820116820180604052508101906108f29190612905565b9050919050565b7f000000000000000000000000000000000000000000000000000000000000000073ffffffffffffffffffffffffffffffffffffffff163373ffffffffffffffffffffffffffffffffffffffff161461095157600080fd5b82431115610994576040517f08c379a000000000000000000000000000000000000000000000000000000000815260040161098b90612879565b60405180910390fd5b60006109dd8260000160208101906109ac9190611c20565b8360600160208101906109bf9190611c20565b8460800160208101906109d29190611c20565b868660c0013561136e565b9050610a2a8260200160208101906109f59190611c20565b836080016020810190610a089190611c20565b8460a0016020810190610a1b9190611c20565b8560c001358660e0013561136e565b9050610a78826040016020810190610a429190611c20565b8360a0016020810190610a559190611c20565b846060016020810190610a689190611c20565b8560e0013586610100013561136e565b9050828111610abc576040517f08c379a0000000000000000000000000000000000000000000000000000000008152600401610ab3906128e5565b60405180910390fd5b50505050565b7f000000000000000000000000000000000000000000000000000000000000000073ffffffffffffffffffffffffffffffffffffffff163373ffffffffffffffffffffffffffffffffffffffff1614610b1a57600080fd5b610b2382610876565b811115610b2f57600080fd5b8173ffffffffffffffffffffffffffffffffffffffff1663a9059cbb7f0000000000000000000000000000000000000000000000000000000000000000836040518363ffffffff1660e01b8152600401610b8a929190612991565b6020604051808303816000875af1158015610ba9573d6000803e3d6000fd5b505050506040513d601f19601f82011682018060405250810190610bcd91906129f2565b505050565b60007f0000000000000000000000000000000000000000000000000000000000000000905090565b60606000808484905067ffffffffffffffff811115610c1c57610c1b611902565b5b604051908082528060200260200182016040528015610c5557816020015b610c42611702565b815260200190600190039081610c3a5790505b50905060005b85859050811015610d6957610ce487878784818110610c7d57610c7c6127ed565b5b9050602002810190610c8f9190612a2e565b8060000190610c9e9190612a56565b80806020026020016040519081016040528093929190818152602001838360200280828437600081840152601f19601f820116905080830192505050505050508a6103e4565b9250858582818110610cf957610cf86127ed565b5b9050602002810190610d0b9190612a2e565b610d1490612b2f565b828281518110610d2757610d266127ed565b5b602002602001018190525082828281518110610d4657610d456127ed565b5b602002602001015160200181815250508080610d6190612b42565b915050610c5b565b508092505050949350505050565b60606000806000808686905067ffffffffffffffff811115610d9c57610d9b611902565b5b604051908082528060200260200182016040528015610dd557816020015b610dc261171c565b815260200190600190039081610dba5790505b50905060005b8787905081101561105b57610e73888883818110610dfc57610dfb6127ed565b5b905061012002016000016020810190610e159190611c20565b898984818110610e2857610e276127ed565b5b905061012002016060016020810190610e419190611c20565b8a8a85818110610e5457610e536127ed565b5b905061012002016080016020810190610e6d9190611c20565b8c610773565b9450610f02888883818110610e8b57610e8a6127ed565b5b905061012002016020016020810190610ea49190611c20565b898984818110610eb757610eb66127ed565b5b905061012002016080016020810190610ed09190611c20565b8a8a85818110610ee357610ee26127ed565b5b9050610120020160a0016020810190610efc9190611c20565b88610773565b9350610f91888883818110610f1a57610f196127ed565b5b905061012002016040016020810190610f339190611c20565b898984818110610f4657610f456127ed565b5b9050610120020160a0016020810190610f5f9190611c20565b8a8a85818110610f7257610f716127ed565b5b905061012002016060016020810190610f8b9190611c20565b87610773565b9250878782818110610fa657610fa56127ed565b5b90506101200201803603810190610fbd9190612c6b565b828281518110610fd057610fcf6127ed565b5b602002602001018190525084828281518110610fef57610fee6127ed565b5b602002602001015160c001818152505083828281518110611013576110126127ed565b5b602002602001015160e001818152505082828281518110611037576110366127ed565b5b6020026020010151610100018181525050808061105390612b42565b915050610ddb565b50809450505050509392505050565b7f000000000000000000000000000000000000000000000000000000000000000073ffffffffffffffffffffffffffffffffffffffff163373ffffffffffffffffffffffffffffffffffffffff16146110c257600080fd5b83431115611105576040517f08c379a00000000000000000000000000000000000000000000000000000000081526004016110fc90612879565b60405180910390fd5b60006111668483806000019061111b9190612a56565b80806020026020016040519081016040528093929190818152602001838360200280828437600081840152601f19601f820116905080830192505050505050508585602001356111b9565b90508281116111aa576040517f08c379a00000000000000000000000000000000000000000000000000000000081526004016111a1906128e5565b60405180910390fd5b5050505050565b600047905090565b60007f000000000000000000000000000000000000000000000000000000000000000073ffffffffffffffffffffffffffffffffffffffff163373ffffffffffffffffffffffffffffffffffffffff161461121357600080fd5b83600081518110611227576112266127ed565b5b602002602001015173ffffffffffffffffffffffffffffffffffffffff1663095ea7b386856040518363ffffffff1660e01b8152600401611269929190612c99565b6020604051808303816000875af1158015611288573d6000803e3d6000fd5b505050506040513d601f19601f820116820180604052508101906112ac91906129f2565b5060008573ffffffffffffffffffffffffffffffffffffffff166338ed173985858830610708426112dd9190612cc2565b6040518663ffffffff1660e01b81526004016112fd959493929190612d18565b6000604051808303816000875af115801561131c573d6000803e3d6000fd5b505050506040513d6000823e3d601f19601f820116820180604052508101906113459190612741565b600181518110611358576113576127ed565b5b6020026020010151905080915050949350505050565b60007f000000000000000000000000000000000000000000000000000000000000000073ffffffffffffffffffffffffffffffffffffffff163373ffffffffffffffffffffffffffffffffffffffff16146113c857600080fd5b6000600267ffffffffffffffff8111156113e5576113e4611902565b5b6040519080825280602002602001820160405280156114135781602001602082028036833780820191505090505b509050858160008151811061142b5761142a6127ed565b5b602002602001019073ffffffffffffffffffffffffffffffffffffffff16908173ffffffffffffffffffffffffffffffffffffffff1681525050848160018151811061147a576114796127ed565b5b602002602001019073ffffffffffffffffffffffffffffffffffffffff16908173ffffffffffffffffffffffffffffffffffffffff16815250506114c0878286866111b9565b91505095945050505050565b606060008060008585905067ffffffffffffffff8111156114f0576114ef611902565b5b60405190808252806020026020018201604052801561152957816020015b6115166117ec565b81526020019060019003908161150e5790505b50905060005b868690508110156116f4576115c48787838181106115505761154f6127ed565b5b905060c0020160000160208101906115689190611c20565b88888481811061157b5761157a6127ed565b5b905060c0020160400160208101906115939190611c20565b8989858181106115a6576115a56127ed565b5b905060c0020160600160208101906115be9190611c20565b8b610773565b93506116508787838181106115dc576115db6127ed565b5b905060c0020160200160208101906115f49190611c20565b888884818110611607576116066127ed565b5b905060c00201606001602081019061161f9190611c20565b898985818110611632576116316127ed565b5b905060c00201604001602081019061164a9190611c20565b87610773565b9250868682818110611665576116646127ed565b5b905060c0020180360381019061167b9190612e12565b82828151811061168e5761168d6127ed565b5b6020026020010181905250838282815181106116ad576116ac6127ed565b5b60200260200101516080018181525050828282815181106116d1576116d06127ed565b5b602002602001015160a001818152505080806116ec90612b42565b91505061152f565b508093505050509392505050565b604051806040016040528060608152602001600081525090565b604051806101200160405280600073ffffffffffffffffffffffffffffffffffffffff168152602001600073ffffffffffffffffffffffffffffffffffffffff168152602001600073ffffffffffffffffffffffffffffffffffffffff168152602001600073ffffffffffffffffffffffffffffffffffffffff168152602001600073ffffffffffffffffffffffffffffffffffffffff168152602001600073ffffffffffffffffffffffffffffffffffffffff1681526020016000815260200160008152602001600081525090565b6040518060c00160405280600073ffffffffffffffffffffffffffffffffffffffff168152602001600073ffffffffffffffffffffffffffffffffffffffff168152602001600073ffffffffffffffffffffffffffffffffffffffff168152602001600073ffffffffffffffffffffffffffffffffffffffff16815260200160008152602001600081525090565b6000604051905090565b600080fd5b600080fd5b600073ffffffffffffffffffffffffffffffffffffffff82169050919050565b60006118b98261188e565b9050919050565b6118c9816118ae565b81146118d457600080fd5b50565b6000813590506118e6816118c0565b92915050565b600080fd5b6000601f19601f8301169050919050565b7f4e487b7100000000000000000000000000000000000000000000000000000000600052604160045260246000fd5b61193a826118f1565b810181811067ffffffffffffffff8211171561195957611958611902565b5b80604052505050565b600061196c61187a565b90506119788282611931565b919050565b600067ffffffffffffffff82111561199857611997611902565b5b602082029050602081019050919050565b600080fd5b60006119c16119bc8461197d565b611962565b905080838252602082019050602084028301858111156119e4576119e36119a9565b5b835b81811015611a0d57806119f988826118d7565b8452602084019350506020810190506119e6565b5050509392505050565b600082601f830112611a2c57611a2b6118ec565b5b8135611a3c8482602086016119ae565b91505092915050565b6000819050919050565b611a5881611a45565b8114611a6357600080fd5b50565b600081359050611a7581611a4f565b92915050565b600080600060608486031215611a9457611a93611884565b5b6000611aa2868287016118d7565b935050602084013567ffffffffffffffff811115611ac357611ac2611889565b5b611acf86828701611a17565b9250506040611ae086828701611a66565b9150509250925092565b611af381611a45565b82525050565b6000602082019050611b0e6000830184611aea565b92915050565b600080fd5b600060c08284031215611b2f57611b2e611b14565b5b81905092915050565b60008060006101008486031215611b5257611b51611884565b5b6000611b6086828701611a66565b9350506020611b7186828701611a66565b9250506040611b8286828701611b19565b9150509250925092565b600060208284031215611ba257611ba1611884565b5b6000611bb084828501611a66565b91505092915050565b60008060008060808587031215611bd357611bd2611884565b5b6000611be1878288016118d7565b9450506020611bf2878288016118d7565b9350506040611c03878288016118d7565b9250506060611c1487828801611a66565b91505092959194509250565b600060208284031215611c3657611c35611884565b5b6000611c44848285016118d7565b91505092915050565b60006101208284031215611c6457611c63611b14565b5b81905092915050565b60008060006101608486031215611c8757611c86611884565b5b6000611c9586828701611a66565b9350506020611ca686828701611a66565b9250506040611cb786828701611c4d565b9150509250925092565b60008060408385031215611cd857611cd7611884565b5b6000611ce6858286016118d7565b9250506020611cf785828601611a66565b9150509250929050565b611d0a816118ae565b82525050565b6000602082019050611d256000830184611d01565b92915050565b600080fd5b60008083601f840112611d4657611d456118ec565b5b8235905067ffffffffffffffff811115611d6357611d62611d2b565b5b602083019150836020820283011115611d7f57611d7e6119a9565b5b9250929050565b60008060008060608587031215611da057611d9f611884565b5b6000611dae87828801611a66565b9450506020611dbf878288016118d7565b935050604085013567ffffffffffffffff811115611de057611ddf611889565b5b611dec87828801611d30565b925092505092959194509250565b600081519050919050565b600082825260208201905092915050565b6000819050602082019050919050565b600081519050919050565b600082825260208201905092915050565b6000819050602082019050919050565b611e5b816118ae565b82525050565b6000611e6d8383611e52565b60208301905092915050565b6000602082019050919050565b6000611e9182611e26565b611e9b8185611e31565b9350611ea683611e42565b8060005b83811015611ed7578151611ebe8882611e61565b9750611ec983611e79565b925050600181019050611eaa565b5085935050505092915050565b611eed81611a45565b82525050565b60006040830160008301518482036000860152611f108282611e86565b9150506020830151611f256020860182611ee4565b508091505092915050565b6000611f3c8383611ef3565b905092915050565b6000602082019050919050565b6000611f5c82611dfa565b611f668185611e05565b935083602082028501611f7885611e16565b8060005b85811015611fb45784840389528151611f958582611f30565b9450611fa083611f44565b925060208a01995050600181019050611f7c565b50829750879550505050505092915050565b60006020820190508181036000830152611fe08184611f51565b905092915050565b60008083601f840112611ffe57611ffd6118ec565b5b8235905067ffffffffffffffff81111561201b5761201a611d2b565b5b60208301915083610120820283011115612038576120376119a9565b5b9250929050565b60008060006040848603121561205857612057611884565b5b600061206686828701611a66565b935050602084013567ffffffffffffffff81111561208757612086611889565b5b61209386828701611fe8565b92509250509250925092565b600081519050919050565b600082825260208201905092915050565b6000819050602082019050919050565b610120820160008201516120e26000850182611e52565b5060208201516120f56020850182611e52565b5060408201516121086040850182611e52565b50606082015161211b6060850182611e52565b50608082015161212e6080850182611e52565b5060a082015161214160a0850182611e52565b5060c082015161215460c0850182611ee4565b5060e082015161216760e0850182611ee4565b5061010082015161217c610100850182611ee4565b50505050565b600061218e83836120cb565b6101208301905092915050565b6000602082019050919050565b60006121b38261209f565b6121bd81856120aa565b93506121c8836120bb565b8060005b838110156121f95781516121e08882612182565b97506121eb8361219b565b9250506001810190506121cc565b5085935050505092915050565b6000602082019050818103600083015261222081846121a8565b905092915050565b60006040828403121561223e5761223d611b14565b5b81905092915050565b6000806000806080858703121561226157612260611884565b5b600061226f87828801611a66565b9450506020612280878288016118d7565b935050604061229187828801611a66565b925050606085013567ffffffffffffffff8111156122b2576122b1611889565b5b6122be87828801612228565b91505092959194509250565b600080600080608085870312156122e4576122e3611884565b5b60006122f2878288016118d7565b945050602085013567ffffffffffffffff81111561231357612312611889565b5b61231f87828801611a17565b935050604061233087828801611a66565b925050606061234187828801611a66565b91505092959194509250565b600080600080600060a0868803121561236957612368611884565b5b6000612377888289016118d7565b9550506020612388888289016118d7565b9450506040612399888289016118d7565b93505060606123aa88828901611a66565b92505060806123bb88828901611a66565b9150509295509295909350565b60008083601f8401126123de576123dd6118ec565b5b8235905067ffffffffffffffff8111156123fb576123fa611d2b565b5b6020830191508360c0820283011115612417576124166119a9565b5b9250929050565b60008060006040848603121561243757612436611884565b5b600061244586828701611a66565b935050602084013567ffffffffffffffff81111561246657612465611889565b5b612472868287016123c8565b92509250509250925092565b600081519050919050565b600082825260208201905092915050565b6000819050602082019050919050565b60c0820160008201516124c06000850182611e52565b5060208201516124d36020850182611e52565b5060408201516124e66040850182611e52565b5060608201516124f96060850182611e52565b50608082015161250c6080850182611ee4565b5060a082015161251f60a0850182611ee4565b50505050565b600061253183836124aa565b60c08301905092915050565b6000602082019050919050565b60006125558261247e565b61255f8185612489565b935061256a8361249a565b8060005b8381101561259b5781516125828882612525565b975061258d8361253d565b92505060018101905061256e565b5085935050505092915050565b600060208201905081810360008301526125c2818461254a565b905092915050565b600082825260208201905092915050565b60006125e682611e26565b6125f081856125ca565b93506125fb83611e42565b8060005b8381101561262c5781516126138882611e61565b975061261e83611e79565b9250506001810190506125ff565b5085935050505092915050565b600060408201905061264e6000830185611aea565b818103602083015261266081846125db565b90509392505050565b600067ffffffffffffffff82111561268457612683611902565b5b602082029050602081019050919050565b6000815190506126a481611a4f565b92915050565b60006126bd6126b884612669565b611962565b905080838252602082019050602084028301858111156126e0576126df6119a9565b5b835b8181101561270957806126f58882612695565b8452602084019350506020810190506126e2565b5050509392505050565b600082601f830112612728576127276118ec565b5b81516127388482602086016126aa565b91505092915050565b60006020828403121561275757612756611884565b5b600082015167ffffffffffffffff81111561277557612774611889565b5b61278184828501612713565b91505092915050565b7f4e487b7100000000000000000000000000000000000000000000000000000000600052601160045260246000fd5b60006127c482611a45565b91506127cf83611a45565b9250828210156127e2576127e161278a565b5b828203905092915050565b7f4e487b7100000000000000000000000000000000000000000000000000000000600052603260045260246000fd5b600082825260208201905092915050565b7f6f7574206f6620626c6f636b0000000000000000000000000000000000000000600082015250565b6000612863600c8361281c565b915061286e8261282d565b602082019050919050565b6000602082019050818103600083015261289281612856565b9050919050565b7f6e6f2070726f6669740000000000000000000000000000000000000000000000600082015250565b60006128cf60098361281c565b91506128da82612899565b602082019050919050565b600060208201905081810360008301526128fe816128c2565b9050919050565b60006020828403121561291b5761291a611884565b5b600061292984828501612695565b91505092915050565b6000819050919050565b600061295761295261294d8461188e565b612932565b61188e565b9050919050565b60006129698261293c565b9050919050565b600061297b8261295e565b9050919050565b61298b81612970565b82525050565b60006040820190506129a66000830185612982565b6129b36020830184611aea565b9392505050565b60008115159050919050565b6129cf816129ba565b81146129da57600080fd5b50565b6000815190506129ec816129c6565b92915050565b600060208284031215612a0857612a07611884565b5b6000612a16848285016129dd565b91505092915050565b600080fd5b600080fd5b600080fd5b600082356001604003833603038112612a4a57612a49612a1f565b5b80830191505092915050565b60008083356001602003843603038112612a7357612a72612a1f565b5b80840192508235915067ffffffffffffffff821115612a9557612a94612a24565b5b602083019250602082023603831315612ab157612ab0612a29565b5b509250929050565b600080fd5b600080fd5b600060408284031215612ad957612ad8612ab9565b5b612ae36040611962565b9050600082013567ffffffffffffffff811115612b0357612b02612abe565b5b612b0f84828501611a17565b6000830152506020612b2384828501611a66565b60208301525092915050565b6000612b3b3683612ac3565b9050919050565b6000612b4d82611a45565b91507fffffffffffffffffffffffffffffffffffffffffffffffffffffffffffffffff821415612b8057612b7f61278a565b5b600182019050919050565b60006101208284031215612ba257612ba1612ab9565b5b612bad610120611962565b90506000612bbd848285016118d7565b6000830152506020612bd1848285016118d7565b6020830152506040612be5848285016118d7565b6040830152506060612bf9848285016118d7565b6060830152506080612c0d848285016118d7565b60808301525060a0612c21848285016118d7565b60a08301525060c0612c3584828501611a66565b60c08301525060e0612c4984828501611a66565b60e083015250610100612c5e84828501611a66565b6101008301525092915050565b60006101208284031215612c8257612c81611884565b5b6000612c9084828501612b8b565b91505092915050565b6000604082019050612cae6000830185611d01565b612cbb6020830184611aea565b9392505050565b6000612ccd82611a45565b9150612cd883611a45565b9250827fffffffffffffffffffffffffffffffffffffffffffffffffffffffffffffffff03821115612d0d57612d0c61278a565b5b828201905092915050565b600060a082019050612d2d6000830188611aea565b612d3a6020830187611aea565b8181036040830152612d4c81866125db565b9050612d5b6060830185611d01565b612d686080830184611aea565b9695505050505050565b600060c08284031215612d8857612d87612ab9565b5b612d9260c0611962565b90506000612da2848285016118d7565b6000830152506020612db6848285016118d7565b6020830152506040612dca848285016118d7565b6040830152506060612dde848285016118d7565b6060830152506080612df284828501611a66565b60808301525060a0612e0684828501611a66565b60a08301525092915050565b600060c08284031215612e2857612e27611884565b5b6000612e3684828501612d72565b9150509291505056fea264697066735822122076524f97aa2fe0a38bb5bd800993a256d282a9ed5dfbf3b5d7bd27fe7bb8176e64736f6c634300080c0033",
  "immutableReferences": {
    "152": [
      {
        "length": 32,
        "start": 1191
      },
      {
        "length": 32,
        "start": 1316
      },
      {
        "length": 32,
        "start": 1695
      },
      {
        "length": 32,
        "start": 1803
      },
      {
        "length": 32,
        "start": 2299
      },
      {
        "length": 32,
        "start": 2756
      },
      {
        "length": 32,
        "start": 2893
      },
      {
        "length": 32,
        "start": 3030
      },
      {
        "length": 32,
        "start": 4204
      },
      {
        "length": 32,
        "start": 4541
      },
      {
        "length": 32,
        "start": 4978
      }
    ]
  },
  "source": "//SPDX-License-Identifier: UNLICENSED\npragma solidity 0.8.12;\n \ninterface IERC20 {\n    event Approval(address indexed owner, address indexed spender, uint value);\n    event Transfer(address indexed from, address indexed to, uint value);\n\n    function name() external view returns (string memory);\n    function symbol() external view returns (string memory);\n    function decimals() external view returns (uint8);\n    function totalSupply() external view returns (uint);\n    function balanceOf(address owner) external view returns (uint);\n    function allowance(address owner, address spender) external view returns (uint);\n\n    function approve(address spender, uint value) external returns (bool);\n    function transfer(address to, uint value) external returns (bool);\n    function transferFrom(address from, address to, uint value) external returns (bool);\n}\n \ninterface IUniswapV2Router {\n    function swapExactTokensForTokens(\n        uint amountIn,\n        uint amountOutMin,\n        address[] calldata path,\n        address to,\n        uint deadline\n    ) external returns (uint[] memory amounts); \n     function getAmountsOut(uint amountIn, address[] calldata path) external view returns (uint[] memory amounts);\n}\n  \ncontract FlashSwapArb {\n  \n    struct Swap1 {\n        address[] path;\n        uint amountOut;\n    }\n\n    struct Swap2 {\n        address router1;\n        address router2;\n        address token1;\n        address token2;\n        uint amountOut1;\n        uint amountOut2;\n    }\n\n    struct Swap3 {\n        address router1;\n        address router2;\n        address router3;\n        address token1;\n        address token2;\n        address token3;\n        uint amountOut1;\n        uint amountOut2;\n        uint amountOut3;\n    }\n \n    address private immutable _owner;  \n  \n    function owner() public view virtual returns (address) {\n        return _owner;\n    }\n \n    modifier onlyOwner() {\n        require(msg.sender == _owner);\n        _;\n    }\n\n    constructor() payable {\n        _owner = msg.sender; \n    }\n\n    receive() external payable {}\n      \n    function withdraw(uint amount) external onlyOwner payable {\n        require(amount <= balance());\n        payable(_owner).transfer(amount);\n    }\n \n    function withdrawOf(address token, uint amount) external onlyOwner payable {\n        require(amount <= balanceOf(token));\n        IERC20(token).transfer(payable(_owner), amount);\n    }\n\n    function balance() public view returns (uint) {\n         return address(this).balance;\n    }\n\n    function balanceOf(address token) public view returns (uint) {\n         return IERC20(token).balanceOf(address(this));\n    }\n\n    function destruct() public onlyOwner {\n        address payable __owner = payable(owner());\n        selfdestruct(__owner);\n    }\n \n    function getAmountOutMin(address router, address[] memory path, uint amount) public view returns (uint ) {\n        uint result = 0;\n        try IUniswapV2Router(router).getAmountsOut(amount, path) returns (uint[] memory amountOutMins) {\n            result = amountOutMins[path.length -1];\n        } catch { }\n        return result;\n    } \n\n    function getAmountOutMin2(address router, address tokenIn, address tokenOut, uint amount) public view returns (uint ) {\n        address[] memory path = new address[](2);\n        path[0] = tokenIn;\n        path[1] = tokenOut;\n        return getAmountOutMin(router, path, amount);\n    }\n\n    function swap(address router, address[]memory path, uint amountIn, uint amountOut) public onlyOwner returns (uint) {\n        IERC20(path[0]).approve(router, amountIn);\n        uint amountReceived = IUniswapV2Router(router).swapExactTokensForTokens(\n            amountIn,\n            amountOut,\n            path,\n            address(this), \n            block.timestamp + 30 minutes\n        )[1];\n        return amountReceived;\n    }\n\n    function swap2(address router, address tokenIn, address tokenOut, uint amountIn, uint amountOut) public onlyOwner returns (uint) {\n        address[] memory path = new address[](2);\n        path[0] = tokenIn;\n        path[1] = tokenOut;\n        return swap(router, path, amountIn, amountOut);\n    }\n\n    function searcher1(uint amountIn, address router, Swap1[] calldata data) external view returns (Swap1[] memory) {\n        uint amountOut;\n        Swap1[] memory _data = new Swap1[](data.length);\n        for (uint i = 0; i < data.length; i++) {\n            amountOut = getAmountOutMin(router, data[i].path, amountIn);\n            _data[i] = data[i];\n            _data[i].amountOut = amountOut;\n        }\n        return (_data);\n    }\n  \n    function taker1(uint maxBlockNumber, address router, uint amountIn, Swap1 calldata data) external onlyOwner payable {\n        require(block.number <= maxBlockNumber, 'out of block');\n        uint amountReceived;\n        amountReceived = swap(router, data.path, amountIn, data.amountOut);  \n        require(amountReceived > amountIn, 'no profit');\n    }\n \n    function searcher2(uint amountIn, Swap2[] calldata data) external view returns (Swap2[] memory) {\n        uint amountOut1;\n        uint amountOut2;\n\n        Swap2[] memory _data = new Swap2[](data.length);\n        for (uint i = 0; i < data.length; i++) {\n            amountOut1 = getAmountOutMin2(data[i].router1, data[i].token1, data[i].token2, amountIn);\n            amountOut2 = getAmountOutMin2(data[i].router2, data[i].token2, data[i].token1, amountOut1);\n            _data[i] = data[i];\n            _data[i].amountOut1 = amountOut1;\n            _data[i].amountOut2 = amountOut2;\n        }\n        return (_data);\n    }\n \n    function taker2(uint maxBlockNumber, uint amountIn, Swap2 calldata data) external onlyOwner payable {\n        require(block.number <= maxBlockNumber, 'out of block');\n        uint amountReceived;\n        amountReceived = swap2(data.router1, data.token1, data.token2, amountIn, data.amountOut1);\n        amountReceived = swap2(data.router2, data.token2, data.token1, data.amountOut1, data.amountOut2);\n        require(amountReceived > amountIn, 'no profit');\n    }\n\n    function searcher3(uint amountIn, Swap3[] calldata data) external view returns (Swap3[] memory) {\n        uint amountOut1;\n        uint amountOut2;\n        uint amountOut3;\n\n        Swap3[] memory _data = new Swap3[](data.length);\n        for (uint i = 0; i < data.length; i++) {\n            amountOut1 = getAmountOutMin2(data[i].router1, data[i].token1, data[i].token2, amountIn);\n            amountOut2 = getAmountOutMin2(data[i].router2, data[i].token2, data[i].token3, amountOut1);\n            amountOut3 = getAmountOutMin2(data[i].router3, data[i].token3, data[i].token1, amountOut2);\n            _data[i] = data[i];\n            _data[i].amountOut1 = amountOut1;\n            _data[i].amountOut2 = amountOut2;\n            _data[i].amountOut3 = amountOut3;\n        }\n        return (_data);\n    }\n \n    function taker3(uint maxBlockNumber, uint amountIn, Swap3 calldata data) external onlyOwner payable {\n        require(block.number <= maxBlockNumber, 'out of block');\n        uint amountReceived;\n        amountReceived = swap2(data.router1, data.token1, data.token2, amountIn, data.amountOut1);\n        amountReceived = swap2(data.router2, data.token2, data.token3, data.amountOut1, data.amountOut2);\n        amountReceived = swap2(data.router3, data.token3, data.token1, data.amountOut2, data.amountOut3);\n        require(amountReceived > amountIn, 'no profit');\n    }\n}\n\n ",
  "sourcePath": "/Users/rdonmez/Documents/bsc-v2-bot/contracts/FlashSwap.sol",
  "compiler": {
    "name": "solc",
    "version": "0.8.12+commit.f00d7308.Emscripten.clang"
  },
  "schemaVersion": "3.4.6",
  "updatedAt": "2022-05-24T10:36:06.859Z",
  "devdoc": {
    "kind": "dev",
    "methods": {},
    "version": 1
  },
  "userdoc": {
    "kind": "user",
    "methods": {},
    "version": 1
  }
}